:10099E00021200000A083F065B4F666D7D077F6FEF
:10098300D3EF9400EE64809480400F7DFADDFE7D0A
:0A099300F8DDFEEF1F70E91E80E69C
:01099D002237
:10091700D290D291D2B0D2B120900A0513E51370CC
:100927000F0512800B20910FE51315137002151296
:100937007FC87E00120983AE12AF137C007D0A12B6
:10094700088C8E148F1574082FF8E6F5A0C2B07FB7
:100957000A7E00120983D2B0AE12AF137C007D0A63
:1009670012088C8C168D1774082517F8E6F5A0C2A7
:0C097700B17F0A7E00120983D2B1809C7F
:03000000020800F3
:0C080000787FE4F6D8FD758117020847E8
:10088C00C2D5EC30E709B2D5E4C39DFDE49CFCEE87
:10089C0030E715B2D5E4C39FFFE49EFE1208C2C335
:1008AC00E49DFDE49CFC80031208C230D507C3E430
:0608BC009FFFE49EFE22F6
:10080C00020917E493A3F8E493A34003F68001F2E2
:10081C0008DFF48029E493A3F85407240CC8C333ED
:10082C00C4540F4420C8834004F456800146F6DFBC
:10083C00E4800B010204081020408090099EE47EA5
:10084C00019360BCA3FF543F30E509541FFEE493B1
:10085C00A360010ECF54C025E060A840B8E493A378
:10086C00FAE493A3F8E493A3C8C582C8CAC583CAA3
:10087C00F0A3C8C582C8CAC583CADFE9DEE780BE5B
:0109AE000048
:1008C200BC000BBE0029EF8DF084FFADF022E4CC1A
:1008D200F875F008EF2FFFEE33FEEC33FCEE9DECE3
:1008E200984005FCEE9DFE0FD5F0E9E4CEFD22ED29
:1008F200F8F5F0EE8420D21CFEADF075F008EF2F73
:10090200FFED33FD4007985006D5F0F222C398FD63
:050912000FD5F0EA2200
:00000001FF
